{
  "_format": "hh-sol-artifact-1",
  "contractName": "ReferralRegistry",
  "sourceName": "src/ReferralRegistry.sol",
  "abi": [
    {
      "inputs": [
        {
          "internalType": "address",
          "name": "initialOwner",
          "type": "address"
        }
      ],
      "stateMutability": "nonpayable",
      "type": "constructor"
    },
    {
      "inputs": [],
      "name": "AlreadyWhitelisted",
      "type": "error"
    },
    {
      "inputs": [],
      "name": "CodeAlreadyUsed",
      "type": "error"
    },
    {
      "inputs": [],
      "name": "CodeExpired",
      "type": "error"
    },
    {
      "inputs": [],
      "name": "CodeGenerationPaused",
      "type": "error"
    },
    {
      "inputs": [],
      "name": "CodeNotFound",
      "type": "error"
    },
    {
      "inputs": [],
      "name": "EnforcedPause",
      "type": "error"
    },
    {
      "inputs": [],
      "name": "ExpectedPause",
      "type": "error"
    },
    {
      "inputs": [],
      "name": "InvalidCode",
      "type": "error"
    },
    {
      "inputs": [],
      "name": "MaxCodesExceeded",
      "type": "error"
    },
    {
      "inputs": [
        {
          "internalType": "address",
          "name": "owner",
          "type": "address"
        }
      ],
      "name": "OwnableInvalidOwner",
      "type": "error"
    },
    {
      "inputs": [
        {
          "internalType": "address",
          "name": "account",
          "type": "address"
        }
      ],
      "name": "OwnableUnauthorizedAccount",
      "type": "error"
    },
    {
      "inputs": [],
      "name": "QuotaReached",
      "type": "error"
    },
    {
      "inputs": [],
      "name": "ReentrancyGuardReentrantCall",
      "type": "error"
    },
    {
      "inputs": [],
      "name": "SelfReferral",
      "type": "error"
    },
    {
      "inputs": [],
      "name": "UnauthorizedOverwrite",
      "type": "error"
    },
    {
      "inputs": [],
      "name": "ZeroAddress",
      "type": "error"
    },
    {
      "anonymous": false,
      "inputs": [
        {
          "indexed": true,
          "internalType": "bytes32",
          "name": "codeHash",
          "type": "bytes32"
        },
        {
          "indexed": true,
          "internalType": "address",
          "name": "creator",
          "type": "address"
        },
        {
          "indexed": false,
          "internalType": "uint256",
          "name": "creatorCount",
          "type": "uint256"
        },
        {
          "indexed": false,
          "internalType": "uint256",
          "name": "quota",
          "type": "uint256"
        }
      ],
      "name": "CodeCreated",
      "type": "event"
    },
    {
      "anonymous": false,
      "inputs": [
        {
          "indexed": true,
          "internalType": "bytes32",
          "name": "codeHash",
          "type": "bytes32"
        },
        {
          "indexed": true,
          "internalType": "address",
          "name": "revoker",
          "type": "address"
        }
      ],
      "name": "CodeRevoked",
      "type": "event"
    },
    {
      "anonymous": false,
      "inputs": [
        {
          "indexed": true,
          "internalType": "bytes32",
          "name": "codeHash",
          "type": "bytes32"
        },
        {
          "indexed": true,
          "internalType": "address",
          "name": "user",
          "type": "address"
        },
        {
          "indexed": true,
          "internalType": "address",
          "name": "referrer",
          "type": "address"
        }
      ],
      "name": "CodeUsed",
      "type": "event"
    },
    {
      "anonymous": false,
      "inputs": [
        {
          "indexed": true,
          "internalType": "address",
          "name": "previousOwner",
          "type": "address"
        },
        {
          "indexed": true,
          "internalType": "address",
          "name": "newOwner",
          "type": "address"
        }
      ],
      "name": "OwnershipTransferred",
      "type": "event"
    },
    {
      "anonymous": false,
      "inputs": [
        {
          "indexed": false,
          "internalType": "address",
          "name": "account",
          "type": "address"
        }
      ],
      "name": "Paused",
      "type": "event"
    },
    {
      "anonymous": false,
      "inputs": [
        {
          "indexed": false,
          "internalType": "address",
          "name": "account",
          "type": "address"
        }
      ],
      "name": "Unpaused",
      "type": "event"
    },
    {
      "anonymous": false,
      "inputs": [
        {
          "indexed": true,
          "internalType": "address",
          "name": "user",
          "type": "address"
        },
        {
          "indexed": true,
          "internalType": "bytes32",
          "name": "codeHash",
          "type": "bytes32"
        },
        {
          "indexed": true,
          "internalType": "address",
          "name": "referrer",
          "type": "address"
        }
      ],
      "name": "Whitelisted",
      "type": "event"
    },
    {
      "inputs": [],
      "name": "codeGenerationPaused",
      "outputs": [
        {
          "internalType": "bool",
          "name": "",
          "type": "bool"
        }
      ],
      "stateMutability": "view",
      "type": "function"
    },
    {
      "inputs": [
        {
          "internalType": "bytes32",
          "name": "",
          "type": "bytes32"
        }
      ],
      "name": "codes",
      "outputs": [
        {
          "internalType": "address",
          "name": "creator",
          "type": "address"
        },
        {
          "internalType": "bool",
          "name": "used",
          "type": "bool"
        },
        {
          "internalType": "uint256",
          "name": "expiresAt",
          "type": "uint256"
        }
      ],
      "stateMutability": "view",
      "type": "function"
    },
    {
      "inputs": [
        {
          "internalType": "address",
          "name": "",
          "type": "address"
        }
      ],
      "name": "codesCreated",
      "outputs": [
        {
          "internalType": "uint256",
          "name": "",
          "type": "uint256"
        }
      ],
      "stateMutability": "view",
      "type": "function"
    },
    {
      "inputs": [],
      "name": "codesQuota",
      "outputs": [
        {
          "internalType": "uint256",
          "name": "",
          "type": "uint256"
        }
      ],
      "stateMutability": "view",
      "type": "function"
    },
    {
      "inputs": [
        {
          "internalType": "bytes32",
          "name": "codeHash",
          "type": "bytes32"
        }
      ],
      "name": "createCode",
      "outputs": [],
      "stateMutability": "nonpayable",
      "type": "function"
    },
    {
      "inputs": [],
      "name": "createCode",
      "outputs": [
        {
          "internalType": "string",
          "name": "",
          "type": "string"
        }
      ],
      "stateMutability": "nonpayable",
      "type": "function"
    },
    {
      "inputs": [
        {
          "internalType": "address",
          "name": "creator",
          "type": "address"
        }
      ],
      "name": "getUnusedCodes",
      "outputs": [
        {
          "internalType": "string[]",
          "name": "",
          "type": "string[]"
        }
      ],
      "stateMutability": "view",
      "type": "function"
    },
    {
      "inputs": [
        {
          "internalType": "address",
          "name": "",
          "type": "address"
        }
      ],
      "name": "isWhitelisted",
      "outputs": [
        {
          "internalType": "bool",
          "name": "",
          "type": "bool"
        }
      ],
      "stateMutability": "view",
      "type": "function"
    },
    {
      "inputs": [],
      "name": "owner",
      "outputs": [
        {
          "internalType": "address",
          "name": "",
          "type": "address"
        }
      ],
      "stateMutability": "view",
      "type": "function"
    },
    {
      "inputs": [],
      "name": "pause",
      "outputs": [],
      "stateMutability": "nonpayable",
      "type": "function"
    },
    {
      "inputs": [],
      "name": "paused",
      "outputs": [
        {
          "internalType": "bool",
          "name": "",
          "type": "bool"
        }
      ],
      "stateMutability": "view",
      "type": "function"
    },
    {
      "inputs": [
        {
          "internalType": "address",
          "name": "",
          "type": "address"
        }
      ],
      "name": "referrerOf",
      "outputs": [
        {
          "internalType": "address",
          "name": "",
          "type": "address"
        }
      ],
      "stateMutability": "view",
      "type": "function"
    },
    {
      "inputs": [],
      "name": "renounceOwnership",
      "outputs": [],
      "stateMutability": "nonpayable",
      "type": "function"
    },
    {
      "inputs": [
        {
          "internalType": "bytes32",
          "name": "codeHash",
          "type": "bytes32"
        }
      ],
      "name": "revokeCode",
      "outputs": [],
      "stateMutability": "nonpayable",
      "type": "function"
    },
    {
      "inputs": [
        {
          "internalType": "bool",
          "name": "paused",
          "type": "bool"
        }
      ],
      "name": "setCodeGenerationPaused",
      "outputs": [],
      "stateMutability": "nonpayable",
      "type": "function"
    },
    {
      "inputs": [
        {
          "internalType": "uint256",
          "name": "newQuota",
          "type": "uint256"
        }
      ],
      "name": "setQuota",
      "outputs": [],
      "stateMutability": "nonpayable",
      "type": "function"
    },
    {
      "inputs": [
        {
          "internalType": "address",
          "name": "newOwner",
          "type": "address"
        }
      ],
      "name": "transferOwnership",
      "outputs": [],
      "stateMutability": "nonpayable",
      "type": "function"
    },
    {
      "inputs": [],
      "name": "unpause",
      "outputs": [],
      "stateMutability": "nonpayable",
      "type": "function"
    },
    {
      "inputs": [
        {
          "internalType": "bytes32",
          "name": "codeHash",
          "type": "bytes32"
        }
      ],
      "name": "useCode",
      "outputs": [],
      "stateMutability": "nonpayable",
      "type": "function"
    },
    {
      "inputs": [
        {
          "internalType": "address",
          "name": "user",
          "type": "address"
        }
      ],
      "name": "whitelistDirect",
      "outputs": [],
      "stateMutability": "nonpayable",
      "type": "function"
    }
  ],
  "bytecode": "0x608060405260056008556009805460ff1916905534801561001f57600080fd5b506040516115f03803806115f083398101604081905261003e916100d1565b806001600160a01b03811661006d57604051631e4fbdf760e01b81526000600482015260240160405180910390fd5b61007681610081565b505060018055610101565b600080546001600160a01b038381166001600160a01b0319831681178455604051919092169283917f8be0079c531659141344cd1fd0a4f28419497f9722a3daafe3b4186f6b6457e09190a35050565b6000602082840312156100e357600080fd5b81516001600160a01b03811681146100fa57600080fd5b9392505050565b6114e0806101106000396000f3fe608060405234801561001057600080fd5b506004361061012c5760003560e01c80638da5cb5b116100ad578063d21cacdf11610071578063d21cacdf146102c1578063dc148195146102ea578063e049aa58146102fd578063eab457681461032b578063f2fde38b1461033457600080fd5b80638da5cb5b14610207578063a257db8e1461022c578063ad6565101461023f578063ba965bed146102a1578063ca8fe887146102ae57600080fd5b80633f4ba83a116100f45780633f4ba83a146101bd5780635a10f3a1146101c55780635c975abb146101e5578063715018a6146101f75780638456cb59146101ff57600080fd5b80631d2d9651146101315780631fc8d22f1461014657806325e702d2146101595780632d222f221461016c5780633af32abf1461018a575b600080fd5b61014461013f36600461118a565b610347565b005b6101446101543660046111a3565b6104fb565b61014461016736600461118a565b61057b565b6101746107c8565b6040516101819190611219565b60405180910390f35b6101ad6101983660046111a3565b60026020526000908152604090205460ff1681565b6040519015158152602001610181565b610144610a11565b6101d86101d33660046111a3565b610a23565b604051610181919061122c565b600054600160a01b900460ff166101ad565b610144610cfb565b610144610d0d565b6000546001600160a01b03165b6040516001600160a01b039091168152602001610181565b61014461023a36600461118a565b610d1d565b61027c61024d36600461118a565b600460205260009081526040902080546001909101546001600160a01b03821691600160a01b900460ff169083565b604080516001600160a01b039094168452911515602084015290820152606001610181565b6009546101ad9060ff1681565b6101446102bc36600461118a565b610d2a565b6102146102cf3660046111a3565b6003602052600090815260409020546001600160a01b031681565b6101446102f8366004611290565b610de2565b61031d61030b3660046111a3565b60056020526000908152604090205481565b604051908152602001610181565b61031d60085481565b6101446103423660046111a3565b610dfd565b61034f610e38565b610357610e62565b3360009081526002602052604090205460ff16156103885760405163b73e95e160e01b815260040160405180910390fd5b600081815260046020526040902080546001600160a01b0316806103bf57604051633303523160e11b815260040160405180910390fd5b8154600160a01b900460ff16156103e95760405163f06fe0f560e01b815260040160405180910390fd5b336001600160a01b0382160361041257604051632af47b8760e11b815260040160405180910390fd5b816001015442111561043757604051632f6f9e9560e11b815260040160405180910390fd5b815460ff60a01b1916600160a01b178255336000818152600260209081526040808320805460ff19166001179055600390915280822080546001600160a01b0386166001600160a01b03199091168117909155905190929186917fba13db86c60c587648f2c6aa4e471975bbff45b3875aba3f5adc78377058ecb69190a46040516001600160a01b03821690849033907f0ff950793dc9095f4467616c367102a39cb87b58a733f0572ce422e6ef9aa9a790600090a450506104f860018055565b50565b610503610e8d565b6001600160a01b03811661052a5760405163d92e233d60e01b815260040160405180910390fd5b6001600160a01b038116600081815260026020526040808220805460ff1916600117905551909182917f0ff950793dc9095f4467616c367102a39cb87b58a733f0572ce422e6ef9aa9a7908390a450565b610583610e38565b61058b610e62565b3360009081526002602052604090205460ff166105e15760405162461bcd60e51b815260206004820152600f60248201526e139bdd081dda1a5d195b1a5cdd1959608a1b60448201526064015b60405180910390fd5b806105ff57604051633303523160e11b815260040160405180910390fd5b6000818152600460205260409020546001600160a01b031615610694576000818152600460205260409020546001600160a01b03163314610653576040516363fbd1ed60e01b815260040160405180910390fd5b33600090815260056020526040812080549161066e836112c8565b9091555050600081815260046020526040812080546001600160a81b0319168155600101555b3360009081526005602052604090205460085481106106c6576040516371f918c360e01b815260040160405180910390fd5b60408051606081018252338152600060208201529081016106ea4262278d006112df565b905260008381526004602090815260409182902083518154928501511515600160a01b026001600160a81b03199093166001600160a01b03909116179190911781559101516001918201556107409082906112df565b3360008181526005602090815260408083209490945560068152928120805460018181018355918352939091209092018490559083907fea41a6181db6b01ff614ec29b7efd6fd7d4bb72b713df4bd9764bb56e8616374906107a39085906112df565b6008546040805192835260208301919091520160405180910390a3506104f860018055565b60606107d2610e38565b6107da610e62565b3360009081526002602052604090205460ff1661082b5760405162461bcd60e51b815260206004820152600f60248201526e139bdd081dda1a5d195b1a5cdd1959608a1b60448201526064016105d8565b60095460ff161561084f57604051633c3f3e3f60e01b815260040160405180910390fd5b336000908152600560205260409020546008548110610881576040516371f918c360e01b815260040160405180910390fd5b6000606060005b60058110156108f35761089b600a610eba565b8051602080830191909120600081815260049092526040909120549094509092506001600160a01b0316156108f357806004036108eb57604051633303523160e11b815260040160405180910390fd5b600101610888565b5060408051606081018252338152600060208201529081016109184262278d006112df565b9052600083815260046020908152604080832084518154868501511515600160a01b026001600160a81b03199091166001600160a01b03909216919091171781559381015160019094019390935560079052206109758282611399565b50336000908152600660209081526040822080546001818101835591845291909220018390556109a69084906112df565b33600081815260056020526040902091909155827fea41a6181db6b01ff614ec29b7efd6fd7d4bb72b713df4bd9764bb56e86163746109e68660016112df565b6008546040805192835260208301919091520160405180910390a392505050610a0e60018055565b90565b610a19610e8d565b610a21611078565b565b6001600160a01b0381166000908152600660205260408120606091805b8254811015610b1557600060046000858481548110610a6157610a61611459565b60009182526020808320909101548352820192909252604001902080549091506001600160a01b03908116908716148015610aa557508054600160a01b900460ff16155b8015610ab5575080600101544211155b15610b0c57600060076000868581548110610ad257610ad2611459565b906000526020600020015481526020019081526020016000208054610af69061130e565b90501115610b0c5782610b088161146f565b9350505b50600101610a40565b5060008167ffffffffffffffff811115610b3157610b316112f8565b604051908082528060200260200182016040528015610b6457816020015b6060815260200190600190039081610b4f5790505b50905081600003610b7757949350505050565b6000805b8454811015610cf057600060046000878481548110610b9c57610b9c611459565b60009182526020808320909101548352820192909252604001902080549091506001600160a01b03908116908916148015610be057508054600160a01b900460ff16155b8015610bf0575080600101544211155b15610ce757600060076000888581548110610c0d57610c0d611459565b906000526020600020015481526020019081526020016000208054610c319061130e565b80601f0160208091040260200160405190810160405280929190818152602001828054610c5d9061130e565b8015610caa5780601f10610c7f57610100808354040283529160200191610caa565b820191906000526020600020905b815481529060010190602001808311610c8d57829003601f168201915b50505050509050600081511115610ce557808585610cc78161146f565b965081518110610cd957610cd9611459565b60200260200101819052505b505b50600101610b7b565b509095945050505050565b610d03610e8d565b610a2160006110cd565b610d15610e8d565b610a2161111d565b610d25610e8d565b600855565b610d32610e8d565b600081815260046020526040902080546001600160a01b0316610d68576040516304b09e1360e41b815260040160405180910390fd5b80546001600160a01b03166000908152600560205260408120805491610d8d836112c8565b909155505060008281526004602052604080822080546001600160a81b031916815560010182905551339184917fc9ef1a54910c7a1da89d8445e87b9518faeb92dbd7ab9a7fd5a15eaf7a9f2e929190a35050565b610dea610e8d565b6009805460ff1916911515919091179055565b610e05610e8d565b6001600160a01b038116610e2f57604051631e4fbdf760e01b8152600060048201526024016105d8565b6104f8816110cd565b600260015403610e5b57604051633ee5aeb560e01b815260040160405180910390fd5b6002600155565b600054600160a01b900460ff1615610a215760405163d93c066560e01b815260040160405180910390fd5b6000546001600160a01b03163314610a215760405163118cdaa760e01b81523360048201526024016105d8565b606060006040518060400160405280602081526020017f41424344454647484a4b4c4d4e505152535455565758595a3233343536373839815250905082600003610f0357600a92505b60008367ffffffffffffffff811115610f1e57610f1e6112f8565b6040519080825280601f01601f191660200182016040528015610f48576020820181803683370190505b503360008181526005602052604081205492935091429144915a6040805160208101969096528501939093526bffffffffffffffffffffffff19606092831b16918401919091526074830152609482015260b40160405160208183030381529060405280519060200120905060005b8581101561106e57604080516020810184905290810182905260009060600160405160208183030381529060405280519060200120905060008551826020856110009190611488565b6020811061101057611010611459565b61101c9291901a611488565b905085818151811061103057611030611459565b602001015160f81c60f81b85848151811061104d5761104d611459565b60200101906001600160f81b031916908160001a9053505050600101610fb7565b5090949350505050565b611080611160565b6000805460ff60a01b191690557f5db9ee0a495bf2e6ff9c91a7834c1ba4fdd244a5e8aa4e537bd38aeae4b073aa335b6040516001600160a01b03909116815260200160405180910390a1565b600080546001600160a01b038381166001600160a01b0319831681178455604051919092169283917f8be0079c531659141344cd1fd0a4f28419497f9722a3daafe3b4186f6b6457e09190a35050565b611125610e62565b6000805460ff60a01b1916600160a01b1790557f62e78cea01bee320cd4e420270b5ea74000d11b0c9f74754ebdbfc544b05a2586110b03390565b600054600160a01b900460ff16610a2157604051638dfc202b60e01b815260040160405180910390fd5b60006020828403121561119c57600080fd5b5035919050565b6000602082840312156111b557600080fd5b81356001600160a01b03811681146111cc57600080fd5b9392505050565b6000815180845260005b818110156111f9576020818501810151868301820152016111dd565b506000602082860101526020601f19601f83011685010191505092915050565b6020815260006111cc60208301846111d3565b600060208083016020845280855180835260408601915060408160051b87010192506020870160005b8281101561128357603f198886030184526112718583516111d3565b94509285019290850190600101611255565b5092979650505050505050565b6000602082840312156112a257600080fd5b813580151581146111cc57600080fd5b634e487b7160e01b600052601160045260246000fd5b6000816112d7576112d76112b2565b506000190190565b808201808211156112f2576112f26112b2565b92915050565b634e487b7160e01b600052604160045260246000fd5b600181811c9082168061132257607f821691505b60208210810361134257634e487b7160e01b600052602260045260246000fd5b50919050565b601f821115611394576000816000526020600020601f850160051c810160208610156113715750805b601f850160051c820191505b818110156113905782815560010161137d565b5050505b505050565b815167ffffffffffffffff8111156113b3576113b36112f8565b6113c7816113c1845461130e565b84611348565b602080601f8311600181146113fc57600084156113e45750858301515b600019600386901b1c1916600185901b178555611390565b600085815260208120601f198616915b8281101561142b5788860151825594840194600190910190840161140c565b50858210156114495787850151600019600388901b60f8161c191681555b5050505050600190811b01905550565b634e487b7160e01b600052603260045260246000fd5b600060018201611481576114816112b2565b5060010190565b6000826114a557634e487b7160e01b600052601260045260246000fd5b50069056fea264697066735822122079c44f53e2d14c6dbc036baf386ceb68a9d4df93fe06f292db884883fa4d6ac964736f6c63430008180033",
  "linkReferences": {},
  "deployedLinkReferences": {}
}